{
  "_format": "hh-sol-artifact-1",
  "contractName": "NidhiSubsidy",
  "sourceName": "contracts/NidhiSubsidy.sol",
  "abi": [
    {
      "inputs": [],
      "stateMutability": "nonpayable",
      "type": "constructor"
    },
    {
      "inputs": [
        {
          "internalType": "string",
          "name": "_recipientID",
          "type": "string"
        },
        {
          "internalType": "uint256",
          "name": "_amount",
          "type": "uint256"
        },
        {
          "internalType": "string",
          "name": "_purpose",
          "type": "string"
        }
      ],
      "name": "addSubsidy",
      "outputs": [],
      "stateMutability": "nonpayable",
      "type": "function"
    },
    {
      "inputs": [],
      "name": "fetAllSubsidies",
      "outputs": [
        {
          "components": [
            {
              "internalType": "uint256",
              "name": "subsidyID",
              "type": "uint256"
            },
            {
              "internalType": "string",
              "name": "recipientID",
              "type": "string"
            },
            {
              "internalType": "uint256",
              "name": "amount",
              "type": "uint256"
            },
            {
              "internalType": "uint256",
              "name": "date",
              "type": "uint256"
            },
            {
              "internalType": "string",
              "name": "purpose",
              "type": "string"
            }
          ],
          "internalType": "struct NidhiSubsidy.Subsidy[]",
          "name": "",
          "type": "tuple[]"
        }
      ],
      "stateMutability": "view",
      "type": "function"
    },
    {
      "inputs": [],
      "name": "government",
      "outputs": [
        {
          "internalType": "address",
          "name": "",
          "type": "address"
        }
      ],
      "stateMutability": "view",
      "type": "function"
    },
    {
      "inputs": [
        {
          "internalType": "uint256",
          "name": "",
          "type": "uint256"
        }
      ],
      "name": "subsidies",
      "outputs": [
        {
          "internalType": "uint256",
          "name": "subsidyID",
          "type": "uint256"
        },
        {
          "internalType": "string",
          "name": "recipientID",
          "type": "string"
        },
        {
          "internalType": "uint256",
          "name": "amount",
          "type": "uint256"
        },
        {
          "internalType": "uint256",
          "name": "date",
          "type": "uint256"
        },
        {
          "internalType": "string",
          "name": "purpose",
          "type": "string"
        }
      ],
      "stateMutability": "view",
      "type": "function"
    },
    {
      "inputs": [],
      "name": "subsidyCount",
      "outputs": [
        {
          "internalType": "uint256",
          "name": "",
          "type": "uint256"
        }
      ],
      "stateMutability": "view",
      "type": "function"
    }
  ],
  "bytecode": "0x60806040526000600155348015601457600080fd5b50336000806101000a81548173ffffffffffffffffffffffffffffffffffffffff021916908373ffffffffffffffffffffffffffffffffffffffff160217905550610ebe806100646000396000f3fe608060405234801561001057600080fd5b50600436106100575760003560e01c80632672f5261461005c5780633618f6661461007a5780633684c9ed146100985780633a72b2ad146100cc5780634501d49a146100ea575b600080fd5b610064610106565b60405161007191906105b4565b60405180910390f35b61008261012a565b60405161008f91906107b7565b60405180910390f35b6100b260048036038101906100ad9190610819565b6102cb565b6040516100c395949392919061089f565b60405180910390f35b6100d4610421565b6040516100e19190610900565b60405180910390f35b61010460048036038101906100ff9190610a50565b610427565b005b60008054906101000a900473ffffffffffffffffffffffffffffffffffffffff1681565b60606002805480602002602001604051908101604052809291908181526020016000905b828210156102c257838290600052602060002090600502016040518060a00160405290816000820154815260200160018201805461018b90610b0a565b80601f01602080910402602001604051908101604052809291908181526020018280546101b790610b0a565b80156102045780601f106101d957610100808354040283529160200191610204565b820191906000526020600020905b8154815290600101906020018083116101e757829003601f168201915b50505050508152602001600282015481526020016003820154815260200160048201805461023190610b0a565b80601f016020809104026020016040519081016040528092919081815260200182805461025d90610b0a565b80156102aa5780601f1061027f576101008083540402835291602001916102aa565b820191906000526020600020905b81548152906001019060200180831161028d57829003601f168201915b5050505050815250508152602001906001019061014e565b50505050905090565b600281815481106102db57600080fd5b906000526020600020906005020160009150905080600001549080600101805461030490610b0a565b80601f016020809104026020016040519081016040528092919081815260200182805461033090610b0a565b801561037d5780601f106103525761010080835404028352916020019161037d565b820191906000526020600020905b81548152906001019060200180831161036057829003601f168201915b50505050509080600201549080600301549080600401805461039e90610b0a565b80601f01602080910402602001604051908101604052809291908181526020018280546103ca90610b0a565b80156104175780601f106103ec57610100808354040283529160200191610417565b820191906000526020600020905b8154815290600101906020018083116103fa57829003601f168201915b5050505050905085565b60015481565b60008054906101000a900473ffffffffffffffffffffffffffffffffffffffff1673ffffffffffffffffffffffffffffffffffffffff163373ffffffffffffffffffffffffffffffffffffffff16146104b5576040517f08c379a00000000000000000000000000000000000000000000000000000000081526004016104ac90610b87565b60405180910390fd5b60018060008282546104c79190610bd6565b9250508190555060026040518060a0016040528060015481526020018581526020018481526020014281526020018381525090806001815401808255809150506001900390600052602060002090600502016000909190919091506000820151816000015560208201518160010190816105419190610db6565b506040820151816002015560608201518160030155608082015181600401908161056b9190610db6565b505050505050565b600073ffffffffffffffffffffffffffffffffffffffff82169050919050565b600061059e82610573565b9050919050565b6105ae81610593565b82525050565b60006020820190506105c960008301846105a5565b92915050565b600081519050919050565b600082825260208201905092915050565b6000819050602082019050919050565b6000819050919050565b61060e816105fb565b82525050565b600081519050919050565b600082825260208201905092915050565b60005b8381101561064e578082015181840152602081019050610633565b60008484015250505050565b6000601f19601f8301169050919050565b600061067682610614565b610680818561061f565b9350610690818560208601610630565b6106998161065a565b840191505092915050565b600060a0830160008301516106bc6000860182610605565b50602083015184820360208601526106d4828261066b565b91505060408301516106e96040860182610605565b5060608301516106fc6060860182610605565b5060808301518482036080860152610714828261066b565b9150508091505092915050565b600061072d83836106a4565b905092915050565b6000602082019050919050565b600061074d826105cf565b61075781856105da565b935083602082028501610769856105eb565b8060005b858110156107a557848403895281516107868582610721565b945061079183610735565b925060208a0199505060018101905061076d565b50829750879550505050505092915050565b600060208201905081810360008301526107d18184610742565b905092915050565b6000604051905090565b600080fd5b600080fd5b6107f6816105fb565b811461080157600080fd5b50565b600081359050610813816107ed565b92915050565b60006020828403121561082f5761082e6107e3565b5b600061083d84828501610804565b91505092915050565b61084f816105fb565b82525050565b600082825260208201905092915050565b600061087182610614565b61087b8185610855565b935061088b818560208601610630565b6108948161065a565b840191505092915050565b600060a0820190506108b46000830188610846565b81810360208301526108c68187610866565b90506108d56040830186610846565b6108e26060830185610846565b81810360808301526108f48184610866565b90509695505050505050565b60006020820190506109156000830184610846565b92915050565b600080fd5b600080fd5b7f4e487b7100000000000000000000000000000000000000000000000000000000600052604160045260246000fd5b61095d8261065a565b810181811067ffffffffffffffff8211171561097c5761097b610925565b5b80604052505050565b600061098f6107d9565b905061099b8282610954565b919050565b600067ffffffffffffffff8211156109bb576109ba610925565b5b6109c48261065a565b9050602081019050919050565b82818337600083830152505050565b60006109f36109ee846109a0565b610985565b905082815260208101848484011115610a0f57610a0e610920565b5b610a1a8482856109d1565b509392505050565b600082601f830112610a3757610a3661091b565b5b8135610a478482602086016109e0565b91505092915050565b600080600060608486031215610a6957610a686107e3565b5b600084013567ffffffffffffffff811115610a8757610a866107e8565b5b610a9386828701610a22565b9350506020610aa486828701610804565b925050604084013567ffffffffffffffff811115610ac557610ac46107e8565b5b610ad186828701610a22565b9150509250925092565b7f4e487b7100000000000000000000000000000000000000000000000000000000600052602260045260246000fd5b60006002820490506001821680610b2257607f821691505b602082108103610b3557610b34610adb565b5b50919050565b7f4f6e6c7920676f7665726e6d656e742063616e20616464000000000000000000600082015250565b6000610b71601783610855565b9150610b7c82610b3b565b602082019050919050565b60006020820190508181036000830152610ba081610b64565b9050919050565b7f4e487b7100000000000000000000000000000000000000000000000000000000600052601160045260246000fd5b6000610be1826105fb565b9150610bec836105fb565b9250828201905080821115610c0457610c03610ba7565b5b92915050565b60008190508160005260206000209050919050565b60006020601f8301049050919050565b600082821b905092915050565b600060088302610c6c7fffffffffffffffffffffffffffffffffffffffffffffffffffffffffffffffff82610c2f565b610c768683610c2f565b95508019841693508086168417925050509392505050565b6000819050919050565b6000610cb3610cae610ca9846105fb565b610c8e565b6105fb565b9050919050565b6000819050919050565b610ccd83610c98565b610ce1610cd982610cba565b848454610c3c565b825550505050565b600090565b610cf6610ce9565b610d01818484610cc4565b505050565b5b81811015610d2557610d1a600082610cee565b600181019050610d07565b5050565b601f821115610d6a57610d3b81610c0a565b610d4484610c1f565b81016020851015610d53578190505b610d67610d5f85610c1f565b830182610d06565b50505b505050565b600082821c905092915050565b6000610d8d60001984600802610d6f565b1980831691505092915050565b6000610da68383610d7c565b9150826002028217905092915050565b610dbf82610614565b67ffffffffffffffff811115610dd857610dd7610925565b5b610de28254610b0a565b610ded828285610d29565b600060209050601f831160018114610e205760008415610e0e578287015190505b610e188582610d9a565b865550610e80565b601f198416610e2e86610c0a565b60005b82811015610e5657848901518255600182019150602085019450602081019050610e31565b86831015610e735784890151610e6f601f891682610d7c565b8355505b6001600288020188555050505b50505050505056fea26469706673582212200e4864ca37cde518f863712fee562c263f08d2633874e5642cf1476c4e0a40b464736f6c634300081c0033",
  "linkReferences": {},
  "deployedLinkReferences": {}
}